{"abi":[{"type":"constructor","inputs":[{"name":"_usdt","type":"address","internalType":"address"},{"name":"_refundTimeout","type":"uint256","internalType":"uint256"}],"stateMutability":"nonpayable"},{"type":"function","name":"REFUND_TIMEOUT","inputs":[],"outputs":[{"name":"","type":"uint256","internalType":"uint256"}],"stateMutability":"view"},{"type":"function","name":"confirmFinder","inputs":[{"name":"alertId","type":"bytes32","internalType":"bytes32"},{"name":"finder","type":"address","internalType":"address"}],"outputs":[],"stateMutability":"nonpayable"},{"type":"function","name":"getAlert","inputs":[{"name":"alertId","type":"bytes32","internalType":"bytes32"}],"outputs":[{"name":"","type":"tuple","internalType":"struct ReuniteEscrow.Alert","components":[{"name":"reporter","type":"address","internalType":"address"},{"name":"status","type":"uint8","internalType":"enum ReuniteEscrow.Status"},{"name":"finder","type":"address","internalType":"address"},{"name":"createdAt","type":"uint64","internalType":"uint64"},{"name":"amount","type":"uint256","internalType":"uint256"}]}],"stateMutability":"view"},{"type":"function","name":"postBounty","inputs":[{"name":"alertId","type":"bytes32","internalType":"bytes32"},{"name":"amount","type":"uint256","internalType":"uint256"}],"outputs":[],"stateMutability":"nonpayable"},{"type":"function","name":"reclaim","inputs":[{"name":"alertId","type":"bytes32","internalType":"bytes32"}],"outputs":[],"stateMutability":"nonpayable"},{"type":"function","name":"usdt","inputs":[],"outputs":[{"name":"","type":"address","internalType":"contract IERC20"}],"stateMutability":"view"},{"type":"event","name":"BountyPosted","inputs":[{"name":"alertId","type":"bytes32","indexed":true,"internalType":"bytes32"},{"name":"reporter","type":"address","indexed":true,"internalType":"address"},{"name":"amount","type":"uint256","indexed":false,"internalType":"uint256"}],"anonymous":false},{"type":"event","name":"BountyRefunded","inputs":[{"name":"alertId","type":"bytes32","indexed":true,"internalType":"bytes32"},{"name":"reporter","type":"address","indexed":true,"internalType":"address"},{"name":"amount","type":"uint256","indexed":false,"internalType":"uint256"}],"anonymous":false},{"type":"event","name":"FinderConfirmed","inputs":[{"name":"alertId","type":"bytes32","indexed":true,"internalType":"bytes32"},{"name":"finder","type":"address","indexed":true,"internalType":"address"},{"name":"amount","type":"uint256","indexed":false,"internalType":"uint256"}],"anonymous":false},{"type":"error","name":"AlertDoesNotExist","inputs":[{"name":"alertId","type":"bytes32","internalType":"bytes32"}]},{"type":"error","name":"CannotConfirmTwice","inputs":[]},{"type":"error","name":"CannotPayoutAfterRefund","inputs":[]},{"type":"error","name":"CannotRefundAfterPayout","inputs":[]},{"type":"error","name":"CannotRefundTwice","inputs":[]},{"type":"error","name":"DuplicateAlertID","inputs":[{"name":"alertId","type":"bytes32","internalType":"bytes32"}]},{"type":"error","name":"OnlyReporter","inputs":[]},{"type":"error","name":"ReclaimOnlyAfterTimeout","inputs":[{"name":"timeRemaining","type":"uint256","internalType":"uint256"}]},{"type":"error","name":"SafeERC20FailedOperation","inputs":[{"name":"token","type":"address","internalType":"address"}]},{"type":"error","name":"ZeroBounty","inputs":[]},{"type":"error","name":"ZeroFinder","inputs":[]},{"type":"error","name":"ZeroTokenAddress","inputs":[]}],"bytecode":{"object":"0x60c060405234801561000f575f5ffd5b506040516115583803806115588339818101604052810190610031919061016a565b5f73ffffffffffffffffffffffffffffffffffffffff168273ffffffffffffffffffffffffffffffffffffffff1603610096576040517f6b093aad00000000000000000000000000000000000000000000000000000000815260040160405180910390fd5b8173ffffffffffffffffffffffffffffffffffffffff1660808173ffffffffffffffffffffffffffffffffffffffff16815250508060a0818152505050506101a8565b5f5ffd5b5f73ffffffffffffffffffffffffffffffffffffffff82169050919050565b5f610106826100dd565b9050919050565b610116816100fc565b8114610120575f5ffd5b50565b5f815190506101318161010d565b92915050565b5f819050919050565b61014981610137565b8114610153575f5ffd5b50565b5f8151905061016481610140565b92915050565b5f5f604083850312156101805761017f6100d9565b5b5f61018d85828601610123565b925050602061019e85828601610156565b9150509250929050565b60805160a05161136c6101ec5f395f818161061501528181610b2e0152610b8401525f8181610126015281816104310152818161088d0152610c73015261136c5ff3fe608060405234801561000f575f5ffd5b5060043610610060575f3560e01c80632f48ab7d146100645780633cf71833146100825780634faddf8d1461009e5780637d57900a146100ce5780638016460a146100ec57806396afb36514610108575b5f5ffd5b61006c610124565b6040516100799190610f94565b60405180910390f35b61009c6004803603810190610097919061101f565b610148565b005b6100b860048036038101906100b3919061105d565b6104ca565b6040516100c591906111aa565b60405180910390f35b6100d6610613565b6040516100e391906111d2565b60405180910390f35b61010660048036038101906101019190611215565b610637565b005b610122600480360381019061011d919061105d565b610925565b005b7f000000000000000000000000000000000000000000000000000000000000000081565b5f5f5f8481526020019081526020015f2090505f73ffffffffffffffffffffffffffffffffffffffff16815f015f9054906101000a900473ffffffffffffffffffffffffffffffffffffffff1673ffffffffffffffffffffffffffffffffffffffff16036101ed57826040517f55af98a80000000000000000000000000000000000000000000000000000000081526004016101e49190611262565b60405180910390fd5b805f015f9054906101000a900473ffffffffffffffffffffffffffffffffffffffff1673ffffffffffffffffffffffffffffffffffffffff163373ffffffffffffffffffffffffffffffffffffffff1614610274576040517f87567bd900000000000000000000000000000000000000000000000000000000815260040160405180910390fd5b5f73ffffffffffffffffffffffffffffffffffffffff168273ffffffffffffffffffffffffffffffffffffffff16036102d9576040517f7d59785700000000000000000000000000000000000000000000000000000000815260040160405180910390fd5b600160028111156102ed576102ec611097565b5b815f0160149054906101000a900460ff1660028111156103105761030f611097565b5b03610347576040517f521e057800000000000000000000000000000000000000000000000000000000815260040160405180910390fd5b60028081111561035a57610359611097565b5b815f0160149054906101000a900460ff16600281111561037d5761037c611097565b5b036103b4576040517ffc9dc21c00000000000000000000000000000000000000000000000000000000815260040160405180910390fd5b81816001015f6101000a81548173ffffffffffffffffffffffffffffffffffffffff021916908373ffffffffffffffffffffffffffffffffffffffff1602179055506001815f0160146101000a81548160ff0219169083600281111561041d5761041c611097565b5b02179055505f8160020154905061047583827f000000000000000000000000000000000000000000000000000000000000000073ffffffffffffffffffffffffffffffffffffffff16610d2d9092919063ffffffff16565b8273ffffffffffffffffffffffffffffffffffffffff16847ff1122534dc681ae60e0cbcfd2d37bf45d3185e323c2f7e8749740b9d536a935b836040516104bc91906111d2565b60405180910390a350505050565b6104d2610ea8565b5f5f8381526020019081526020015f206040518060a00160405290815f82015f9054906101000a900473ffffffffffffffffffffffffffffffffffffffff1673ffffffffffffffffffffffffffffffffffffffff1673ffffffffffffffffffffffffffffffffffffffff1681526020015f820160149054906101000a900460ff16600281111561056557610564611097565b5b600281111561057757610576611097565b5b8152602001600182015f9054906101000a900473ffffffffffffffffffffffffffffffffffffffff1673ffffffffffffffffffffffffffffffffffffffff1673ffffffffffffffffffffffffffffffffffffffff1681526020016001820160149054906101000a900467ffffffffffffffff1667ffffffffffffffff1667ffffffffffffffff1681526020016002820154815250509050919050565b7f000000000000000000000000000000000000000000000000000000000000000081565b5f8103610670576040517fd60c4e6f00000000000000000000000000000000000000000000000000000000815260040160405180910390fd5b5f73ffffffffffffffffffffffffffffffffffffffff165f5f8481526020019081526020015f205f015f9054906101000a900473ffffffffffffffffffffffffffffffffffffffff1673ffffffffffffffffffffffffffffffffffffffff161461071157816040517fbf493b770000000000000000000000000000000000000000000000000000000081526004016107089190611262565b60405180910390fd5b6040518060a001604052803373ffffffffffffffffffffffffffffffffffffffff1681526020015f600281111561074b5761074a611097565b5b81526020015f73ffffffffffffffffffffffffffffffffffffffff1681526020014267ffffffffffffffff168152602001828152505f5f8481526020019081526020015f205f820151815f015f6101000a81548173ffffffffffffffffffffffffffffffffffffffff021916908373ffffffffffffffffffffffffffffffffffffffff1602179055506020820151815f0160146101000a81548160ff021916908360028111156107fe576107fd611097565b5b02179055506040820151816001015f6101000a81548173ffffffffffffffffffffffffffffffffffffffff021916908373ffffffffffffffffffffffffffffffffffffffff16021790555060608201518160010160146101000a81548167ffffffffffffffff021916908367ffffffffffffffff160217905550608082015181600201559050506108d23330837f000000000000000000000000000000000000000000000000000000000000000073ffffffffffffffffffffffffffffffffffffffff16610d80909392919063ffffffff16565b3373ffffffffffffffffffffffffffffffffffffffff16827faee3e7b1de2d023c4864d88b4c8c806254f2b7ff0121f527176742ba33e2850d8360405161091991906111d2565b60405180910390a35050565b5f5f5f8381526020019081526020015f2090505f73ffffffffffffffffffffffffffffffffffffffff16815f015f9054906101000a900473ffffffffffffffffffffffffffffffffffffffff1673ffffffffffffffffffffffffffffffffffffffff16036109ca57816040517f55af98a80000000000000000000000000000000000000000000000000000000081526004016109c19190611262565b60405180910390fd5b805f015f9054906101000a900473ffffffffffffffffffffffffffffffffffffffff1673ffffffffffffffffffffffffffffffffffffffff163373ffffffffffffffffffffffffffffffffffffffff1614610a51576040517f87567bd900000000000000000000000000000000000000000000000000000000815260040160405180910390fd5b600280811115610a6457610a63611097565b5b815f0160149054906101000a900460ff166002811115610a8757610a86611097565b5b03610abe576040517f41b05e1e00000000000000000000000000000000000000000000000000000000815260040160405180910390fd5b60016002811115610ad257610ad1611097565b5b815f0160149054906101000a900460ff166002811115610af557610af4611097565b5b03610b2c576040517f13bc97ad00000000000000000000000000000000000000000000000000000000815260040160405180910390fd5b7f00000000000000000000000000000000000000000000000000000000000000008160010160149054906101000a900467ffffffffffffffff1667ffffffffffffffff16610b7a91906112a8565b421015610c1657427f00000000000000000000000000000000000000000000000000000000000000008260010160149054906101000a900467ffffffffffffffff1667ffffffffffffffff16610bd091906112a8565b610bda91906112db565b6040517f297aa0dd000000000000000000000000000000000000000000000000000000008152600401610c0d91906111d2565b60405180910390fd5b6002815f0160146101000a81548160ff02191690836002811115610c3d57610c3c611097565b5b02179055505f81600201549050610cb7825f015f9054906101000a900473ffffffffffffffffffffffffffffffffffffffff16827f000000000000000000000000000000000000000000000000000000000000000073ffffffffffffffffffffffffffffffffffffffff16610d2d9092919063ffffffff16565b815f015f9054906101000a900473ffffffffffffffffffffffffffffffffffffffff1673ffffffffffffffffffffffffffffffffffffffff16837fdd01b4689a2372afbf170143867234d409c5b6dd10f83918afd6e200f00f405883604051610d2091906111d2565b60405180910390a3505050565b610d3a8383836001610dd5565b610d7b57826040517f5274afe7000000000000000000000000000000000000000000000000000000008152600401610d72919061131d565b60405180910390fd5b505050565b610d8e848484846001610e37565b610dcf57836040517f5274afe7000000000000000000000000000000000000000000000000000000008152600401610dc6919061131d565b60405180910390fd5b50505050565b5f5f63a9059cbb60e01b9050604051815f525f1960601c86166004528460245260205f60445f5f8b5af1925060015f51148316610e29578383151615610e1d573d5f823e3d81fd5b5f873b113d1516831692505b806040525050949350505050565b5f5f6323b872dd60e01b9050604051815f525f1960601c87166004525f1960601c86166024528460445260205f60645f5f8c5af1925060015f51148316610e95578383151615610e89573d5f823e3d81fd5b5f883b113d1516831692505b806040525f606052505095945050505050565b6040518060a001604052805f73ffffffffffffffffffffffffffffffffffffffff1681526020015f6002811115610ee257610ee1611097565b5b81526020015f73ffffffffffffffffffffffffffffffffffffffff1681526020015f67ffffffffffffffff1681526020015f81525090565b5f73ffffffffffffffffffffffffffffffffffffffff82169050919050565b5f819050919050565b5f610f5c610f57610f5284610f1a565b610f39565b610f1a565b9050919050565b5f610f6d82610f42565b9050919050565b5f610f7e82610f63565b9050919050565b610f8e81610f74565b82525050565b5f602082019050610fa75f830184610f85565b92915050565b5f5ffd5b5f819050919050565b610fc381610fb1565b8114610fcd575f5ffd5b50565b5f81359050610fde81610fba565b92915050565b5f610fee82610f1a565b9050919050565b610ffe81610fe4565b8114611008575f5ffd5b50565b5f8135905061101981610ff5565b92915050565b5f5f6040838503121561103557611034610fad565b5b5f61104285828601610fd0565b92505060206110538582860161100b565b9150509250929050565b5f6020828403121561107257611071610fad565b5b5f61107f84828501610fd0565b91505092915050565b61109181610fe4565b82525050565b7f4e487b71000000000000000000000000000000000000000000000000000000005f52602160045260245ffd5b600381106110d5576110d4611097565b5b50565b5f8190506110e5826110c4565b919050565b5f6110f4826110d8565b9050919050565b611104816110ea565b82525050565b5f67ffffffffffffffff82169050919050565b6111268161110a565b82525050565b5f819050919050565b61113e8161112c565b82525050565b60a082015f8201516111585f850182611088565b50602082015161116b60208501826110fb565b50604082015161117e6040850182611088565b506060820151611191606085018261111d565b5060808201516111a46080850182611135565b50505050565b5f60a0820190506111bd5f830184611144565b92915050565b6111cc8161112c565b82525050565b5f6020820190506111e55f8301846111c3565b92915050565b6111f48161112c565b81146111fe575f5ffd5b50565b5f8135905061120f816111eb565b92915050565b5f5f6040838503121561122b5761122a610fad565b5b5f61123885828601610fd0565b925050602061124985828601611201565b9150509250929050565b61125c81610fb1565b82525050565b5f6020820190506112755f830184611253565b92915050565b7f4e487b71000000000000000000000000000000000000000000000000000000005f52601160045260245ffd5b5f6112b28261112c565b91506112bd8361112c565b92508282019050808211156112d5576112d461127b565b5b92915050565b5f6112e58261112c565b91506112f08361112c565b92508282039050818111156113085761130761127b565b5b92915050565b61131781610fe4565b82525050565b5f6020820190506113305f83018461130e565b9291505056fea2646970667358221220a8ffeda7bf042b6271bb6780853cc3bd3e4c1b327a38184eddfa0b647cf6b3f064736f6c63430008230033","linkReferences":{}},"methodIdentifiers":{"REFUND_TIMEOUT()":"7d57900a","confirmFinder(bytes32,address)":"3cf71833","getAlert(bytes32)":"4faddf8d","postBounty(bytes32,uint256)":"8016460a","reclaim(bytes32)":"96afb365","usdt()":"2f48ab7d"},"id":29}